S0150000736F635F656D7074795F544253312E73333793
S214004000007C0020217400001D7400001D74000058
S2140040101F5D00001D7400001D7400001D7400006C
S2140040201D7400001D7400001D7400001D74000047
S2140040301D7400001D7400001D7400001D74000037
S2140040401D74000031A300001D740000A99B000031
S21400405089A300003DA3000055A3000035A300007F
S2140040601D7400001D7400001D7400001D74000007
S2140040701D7400001D7400001D7400001D740000F7
S2140040801D7400001D7400001D7400001D740000E7
S2140040901D7400001D7400001D7400001D740000D7
S2140040A01D7400001D7400001D7400008DA3000028
S2140040B039A300001D740000C5A300001D74000095
S2140040C0E18C00001D74000010B5054C237833B950
S2140040D0044B13B10448AFF300800123237010BDD6
S2140040E0C0000020000000006CE1000008B5034B93
S2140040F01BB103490348AFF3008008BD0000000071
S214004100C40000206CE10000154B002B08BF134BC9
S2140041109D46A3F5803A00218B460F461348144A65
S214004120121A08F0A4FC0F4B002B00D098470E4B39
S214004130002B00D098470020002104000D000D48F9
S214004140002802D00C48AFF3008008F061FC200085
S214004150290002F001FA08F047FC00BF0000080042
S214004160007C00200000000000000000C0000020CE
S2140041708C1A0020000000000000000037B504463E
S214004180684680E8060003C8251D85E805002373F9
S214004190069B2361BDF81C30A38200232360084BD6
S2140041A01A6812B91C6004E00A4611680029FBD19F
S2140041B014609888013080B2988003B030BD00BF8C
S2140041C0DC06002007B503790193054A03680093CF
S2140041D006CA02230830FFF7D1FF03B05DF804FBE0
S2140041E0CCCD00000A4B40F2011210B51A604FF019
S2140041F0FF329A6001225A6008441A46814202D170
S214004200D869C04310BD11F8014B9461F6E700BFB2
S21400421000C0014040F628020B461268A2F5006175
S214004220B1F5605F10B40DD2126BA2F50061B1F566
S214004230605F07D21469064A0146A44600205DF86E
S214004240044B60474FF481705DF8044B704700BF25
S2140042502C07002070B540F62805E0B02B68A3F5C3
S2140042600062B2F5605F04D34FF40174204660B07C
S21400427070BD1B6B002BF7D05B6A4FF4C0726946AB
S2140042800020984704460028F0D140F201262B680B
S214004290A3F50062B2F5605FE6D21B6BA3F5006281
S2140042A0B2F5605FE0D29B6A002168469847B0424C
S2140042B0EDD040F20323984218BF0446D6E700002C
S2140042C0304B1A6FD96CC90702F0070242D5012A93
S2140042D040D9132851D9143813288CBF102308232B
S2140042E02849013BCA6C180322F47F4240EA0323A4
S2140042F01343CB64244BCA6C1B88C2F303222833B7
S214004300013202EB820003EB5303B3FBF0F3C86CFD
S214004310013B072B20F0EE6028BF072340F48010F7
S21400432040EA0363CB64194BB3F90030002B10DB73
S2140043302833500800EB420203EB5303B3FBF2F3BF
S2140043400A6D072B28BF072322F0700242EA0313E8
S2140043500B657047DB6CD90706D4012A04D80928F8
S2140043600BD90A380928B8E7064BDB6C13F00103B3
S214004370B6D0012A03D82728AFE70423B0E70023E6
S214004380AEE700BF00300E40FA060020FC06002014
S2140043900A490B4B88425A680BD90A4988420AD9FF
S2140043A002F040715A6822F0407242EA01625A6096
S2140043B070470021F6E70121F4E700BF40787D0151
S2140043C000000E40005A6202C0F30313013B092BA3
S2140043D03FD8DFE803F0050B0F193E3E1F232C35B0
S2140043E01D4BD3F80001C0F3042070471A4BD3F8D6
S2140043F01401F8E7184BD3F80001C0F30060431C23
S2140044000120984001387047134BD3F80C01C0F3D5
S21400441008207047104BD3F80801F8E70F4B984276
S21400442017D10D4BD3F8203103F00F03E8E70C4B00
S21400443098420ED1084BD3F8283103F00303DFE788
S214004440084B984205D1044BD3F8300100F00F001A
S21400445070470020704700BF00400E4080061600E0
S21400446090071A00A00914000C4B984210D90C4B68
S214004470984210D9022201230A490B600A49D1F852
S214004480003123F0807343EA0263C1F800317047BD
S21400449000221346F0E70122FBE700BF0048E801D0
S2140044A00090D0034000C84300400E40094B30B592
S2140044B0196C5C6C0022234642EA0104220C8270CE
S2140044C01A0A210AC2701A0C1B0E0470417002717F
S2140044D0437130BDB081E00F214BD3F8F821024084
S2140044E01CD170B4D3F8FC51D3F8006203F5FC7409
S2140044F0641BA410022C12D0032C29D0012C1AD035
S214004500184A52682A6005F10C026860C3F8FC215C
S214004510A96033680C33336070BC70477047114A2B
S2140045201C1D52682A60686004221960C3F8FC41AA
S214004530326070BC70470B4C1A4664682C6042F8B8
S214004540080B08205960C3F8FC21306070BC704727
S214004550044C6468A960C5E90040C3F8FC31E7E78D
S214004560D0130020001000E0837DDB0701D5808A91
S2140045707047D0E901239B1A44BF828A9B1898B2E1
S21400458070470000044B5A6D22B95865A3F85810BE
S21400459001207047002070477C060020D0B50C4CE8
S2140045A0E38C0A20584307F083FF0646A08C0F468C
S2140045B007F07EFF0022074B07F0E4FF02460B469B
S2140045C03046394608F008F908F0EEF92083D0BDE9
S2140045D07C0600200000F43F084A10B5146840F23C
S2140045E0E243584303FB0141536800F5807001EB3A
S2140045F0500118441160506010BD00BF7C060020BA
S21400460070B500228AB01346D91003F00704415C47
S2140046102141CC0741BF0AA98918013201F8283C7C
S2140046200133252BF0D10E4D0023D91003F00704DB
S214004630415C2141C90707D5E91881F82A300133C2
S214004640252BF2D10AB070BD0AAE93FBF2F102FB45
S21400465011313144EC1811F8286C84F82A60EEE722
S2140046607C060020024B986C80B28002704700BF28
S214004670B081E00F7FB50E4B02466D4603F1100683
S214004680186859682C4603C40833B3422546F7D148
S214004690531E04A90F3211F8014D13F8010F84427E
S2140046A004D19342F7D1012004B070BD0020FBE78F
S2140046B0ECCB000070B5154D286810BB144B154C9C
S2140046C0E41A154B1C4424F4FF6424F00704FFF797
S2140046D0C9FF844214D2666BA6B1FFF7C3FF8642B9
S2140046E010D2FFF7BFFF06F1400383420AD83046D8
S2140046F0FFF7C0FF30B1F36933F0080302D02C6037
S214004700286870BD04F50064E1E700BF40010020A2
S21400471010000020C0000020B7E90000BFF34F8F54
S2140047200549064BCA6802F4E0621343CB60BFF348
S2140047304F8F00BFFDE700BF00ED00E00400FA0564
S21400474040F628031B68A3F50062B2F5605F07D247
S2140047501B6BA3F50062B2F5605F01D2DB6B1847F6
S21400476040F20110704740F6280310B41B68A3F50A
S2140047700064B4F5605F09D21B6BA3F50064B4F562
S214004780605F03D29B6B5DF8044B184740F2011044
S2140047905DF8044B704740F628031B68A3F50062DB
S2140047A0B2F5605F01D25B6A1847002070470000D0
S2140047B028231A68B2F5006F0BD240F628031B6850
S2140047C0A3F50061B1F5605F03D21168084A914213
S2140047D003D000230370836070471968054A91422E
S2140047E0F7D1012202709A6842609B69F3E700BF26
S2140047F0AD1007B007B0CD5E10B50C4630B9044812
S214004800FFF7D6FF034B23600423A380002010BDD0
S2140048109C010020A001002010B508B3114B1A68B7
S214004820918881421CD39988814281BF01211268F8
S21400483099809A6099889A6800242AB904B19A6087
S2140048404FF6FF71998009E0884204D00131126862
S21400485089B20124F1E70CB198809A60104610BD29
S2140048600022FBE7E406002037B50D461446FFF7A6
S214004870D3FFD8B10369828A63B14FF6FE718A42CC
S21400488008D100200090ADF804006946984738B17A
S21400489003B030BD2B602280286848B92080F7E737
S2140048A0009B2B60BDF804302380F5E70120EFE77E
S2140048B00020EDE737B50D461446FFF7ADFF70B1A3
S2140048C0036973B1818A4FF6FE72914209D1009551
S2140048D0ADF8044069460120984703B030BD01207A
S2140048E0FBE70E20F9E7000037B50379124A0333D9
S2140048F00446019300F14403009306CA02231430D1
S214004900FFF73CFC228A0192E268237A009204F1C7
S2140049102C0094E80600FFF731FC237AA4F8450043
S214004920054684F844302279216804F1470008F0EF
S21400493093F8284603B030BDC4CD000070B50E4CC9
S2140049400E4B04F1100206460D4692E8030018349A
S21400495083E803001846FFF735FC094B94E803008C
S21400496002221A7283E80300DE601D821846BDE844
S2140049707040FFF7B9BF00BFECCB00006413002007
S214004980C40400202DE9F041054616468846FFF788
S214004990EBFDAB8A181A80B2864228BF0646374619
S2140049A05FB93EB1D5E901329A4202BFAB7D43F012
S2140049B00103AB753046BDE8F081AB8A2C68A86869
S2140049C01C44241AA3B2BB428CBF3C46A4B2224667
S2140049D0414608F041F8AB682968AA8A23440A448D
S2140049E0A0449342A7EB0404AB60A7B228BFA9601B
S2140049F0D6E770B5044615461E4611B3FFF7B4FD5C
S214004A00A38A181A80B2012829D9E37D63B1E36826
S214004A10628A1A70120A07D02068A18A01330144FC
S214004A208B4228BF0346F4E700236382A368E36053
S214004A30022204F112012046FFF7A4FFE37D0133B2
S214004A40E375324629462046FFF79CFF638A0344F7
S214004A506382E37D13B9238A0344238270BD00205A
S214004A60FCE72DE9F041164605468846FFF77CFD33
S214004A70864228BF0646B6B237464FB92EB1AB7D42
S214004A80DA0744BF23F00103AB753046BDE8F0817A
S214004A90AB8A2C6869681C44641AA3B2BB428CBFFC
S214004AA03C46A4B22246404607F0D6FF6B6829680B
S214004AB0AA8A23440A44A0449342A7EB04046B60EA
S214004AC0A7B228BF6960D8E770B51E46038A0446B9
S214004AD01546EBB9C27DDAB10123013A0B70C275F7
S214004AE000F110010222FFF7BCFFE37D9BB1228A92
S214004AF0B24228BF324629462046FFF7B2FF238A35
S214004B001B1A2382E37D13B9638A1B1A638270BD66
S214004B1000230B70EBE7638A2382E8E770B50D4647
S214004B20A8B9FFF7C7FD446BFFF7C4FD58B123468D
S214004B30084C03F1400618685968224603C2083339
S214004B40B3421446F7D1044B2B600423AB800020FD
S214004B5070BD00BF44010020640100202DE9F04331
S214004B6085B088466946044681E80C000C9EBDF870
S214004B703470FFF751FE4FF6FE7905460DB14445F9
S214004B8005D94FF6FF74204605B0BDE8F0832B7AB2
S214004B909DF804209A421ED10099686807F078FFB5
S214004BA0C8B9002EEFD02B69AA8AA3B14A4509D10D
S214004BB00290ADF80C0002A9984760B9029BBDF8B8
S214004BC00C2043B1974206D13A461946304607F0C4
S214004BD05FFF0028D7D001342D68A4B2CEE70000CE
S214004BE0F0B5354C87B011464FF486701F46164612
S214004BF0FFF772FC236925462BB94FF48370FFF745
S214004C006BFC07B0F0BD002F08BF082E21D101AA0B
S214004C100321206802F0EAFF636860615B7A23760E
S214004C209DF80430DA1F53425341627E63F300025C
S214004C30039BE361BDF806306276638304F11801D6
S214004C4023690220984701220021206802F0D6FF3F
S214004C50D7E7002F08BFB6F5000F03D100210120CB
S214004C609847CEE706F4A0420023134309D04FF43A
S214004C7080714FF48170FFF72FFC23690021032019
S214004C80EEE706F4A0620023134308D001214FF498
S214004C908170FFF721FC2B690021FF20E0E706F07A
S214004CA020520023134319BF012140F20110314660
S214004CB04FF48370EDE700BFC41100201FB5022338
S214004CC08DF80630064B5A8B596918680332ADF8D2
S214004CD004206A4602F08EFF009805B05DF804FBDB
S214004CE0C411002008B500214FF48570FFF7F4FBCF
S214004CF0044B00221A61186801220321BDE808400F
S214004D0002F03ABCC411002013B50D4B0D4C1B88A5
S214004D10ADF804300128ADF8003004BF02238DF84A
S214004D20043001A908BF0423206808BF8DF80030AE
S214004D3002F0C2FE6946206802F0D6FE02B010BD40
S214004D400CCC0000C411002037B5124C437A6060CA
S214004D5000220092D0E90021206802F0BBFF238CDD
S214004D60DB050CD563680C4D1A7A2978914206D07B
S214004D70012A06D0022A08D063681B7A2B7003B07B
S214004D8030BD206802F07CFFF6E7206802F07EFF68
S214004D90F2E700BFC4110020D9060020F0B51A4C77
S214004DA01948637A0133DBB2272B85B088BF2523E9
S214004DB06372FFF7C9FFE768657C627D134C144990
S214004DC020684FF40073023202F0F0FE6368114A66
S214004DD05B7A05F001052846D65CFFF795FF0022B2
S214004DE0012300928DF80C30314602AB2068029702
S214004DF002F0C6FB28B1FFF775FFFFF7CFFF05B03F
S214004E00F0BD054B2361FAE7DC000020C41100204A
S214004E10F000002096CD0000E155000038B50D46A4
S214004E2011462C68A41A2246014407F040FE2C6066
S214004E3038BD00002DE9F843454F464B464EDB1B78
S214004E40464F34683B4423F4FF63051B23F00703F7
S214004E5043489D420560B146804673D31444FFF72D
S214004E6001FC2C44A0F5805084426ED83068161899
S214004E70B6F5806F03D93B4B82221A7060E03A4F3A
S214004E80384407F0E9FD394BC9F800601A681AB9CA
S214004E90332E55D97A6B1A601B689D4205EB0604C3
S214004EA01DD8A3421BD203F11002A24248D85B1BB6
S214004EB01F442F4A3B4607F1100153F8040B42F8F3
S214004EC0040B8B42F9D12A48FFF7D4FB10B9254BC7
S214004ED08422D2E71022FF21384607F0C8FD254F6E
S214004EE0254B386806F00306A41B1C4058B905EA93
S214004EF00300C0F500612144FFF722FC3C6040B18E
S214004F00184B8522B9E7844203D9211A00F50060C0
S214004F10F2E7D9F800201449D8F80000921BFFF7F2
S214004F2022FCD9F80020D8F800300B49921B044622
S214004F3013440D48C8F80030FFF770FF002CDFD18F
S214004F40BDE8F883074B872297E7064B832294E752
S214004F5010000020C0000020BC110020B7E90000AF
S214004F60340B0020310B0020BC0D0020B80D0020B3
S214004F70A80D0020C011002000F8FFFFEFF31080FE
S214004F8072B670470B4A536911699B0003F03C03E5
S214004F90C1F381110B438370136903F03F03437021
S214004FA09369D26903F0F003C2F30312134303704C
S214004FB0704700BFD0FF0FE0054A064B1B68136F13
S214004FC023F007031843044B10671888FFF778B9D7
S214004FD000300E408009C643F8060020EFF310802C
S214004FE072B6704700B962B67047000010B5034C41
S214004FF0A01DFFF705FB0023236010BD880D0020D1
S21400500010B5094CB4F80710A079FFF7E5FAA368C5
S214005010064AB4F80D10D184C3F30F239384FFF728
S214005020BDFA0023236010BD880D00207C060020FA
S214005030034B044A9979117500221A60704700BF25
S214005040880D00207C060020FFF7CCBF2DE9F0413C
S2140050500D4F06460D4614460CB9BDE8F081EFF339
S214005060108872B623462A4631463846FFF7C1FCFA
S21400507003464046FFF7B6FF002BEDD0E41AA4B275
S2140050801D440026E8E700BF6C0C002013B5002383
S21400509001F10804ADF80430ADF8060021461A46C2
S2140050A0083151F8100C70B90BB1ADF80420042289
S2140050B00DEB020101200834FFF7C8FF54F8101C5E
S2140050C039B902B010BD51F80C3C1A4492B2012313
S2140050D0E6E734F80C2C0020EDE700007FB500234F
S2140050E00130CDE90101CDE904336946044B009354
S2140050F004200392FFF7CAFF07B05DF804FB00BF69
S2140051008A01002040F6280210B51368A3F5006354
S214005110B3F5605F0ED2EFF3108072B60849002434
S2140051200B780C70FFF75EFF3BB11368BDE81040CC
S2140051301B6A18474FF4817010BD1846FCE700BF85
S214005140850D002001282DE9F34740F034818B8837
S214005150012B40F032810B681B7813BB994A9A4C9E
S21400516013609A4A13609A4A13609A4A13609A4ADE
S21400517013609A4A13709A4A13609A4A1360227808
S214005180022A01D1FFF7BEFF01232370964B0024AD
S2140051901C70964B1C70964B1C70204602B0BDE8E7
S2140051A0F087032B40F0F480914B874E1C78002C40
S2140051B050D13378002B00F0DF80884B1B78082B0B
S2140051C07ED1804B1868984680B940F628052B6833
S2140051D0A3F50063B3F5605F57D34FF4017041F257
S2140051E00804A0420CBF8624802433E010F0030796
S2140051F01ABFC7F10407FFB2274600EB070ABAF545
S214005200806F00F2BF807B4B3A46FF21184407F0C0
S2140052102EFC734A784913680968C8F800A00AEBA0
S21400522003008842914600F2B180684A15681D4422
S2140052305544DFF8A4A125F4FF65DAF8000025F050
S214005240070585420BD9291A00F50060FFF778FAA2
S21400525018B18524002333709FE7CAF80050D8F8A9
S2140052600010D9F80000FEF7D5FFD9F80030D8F8BE
S2140052700020544913440546DF1B5E48C9F80070F9
S214005280FFF7CCFD002DA0D0E3E7FEF7E3FF0028F4
S214005290A5D12B680190A3F50062B2F5605FD8D265
S2140052A01B6BA3F50062B2F5605FD2D29B69012149
S2140052B001A898470028CCD14C4B01221A70C9E7A8
S2140052C0002B5BD0484B1B78002B59D0454F3B68D2
S2140052D043B9404B494918681022FFF744FA0028A2
S2140052E0B8D0B6E713F003021CBFC2F10402D2B274
S2140052F09D18B5F5806F45D84148FF21184407F042
S214005300B6FB404A404B324840493D609B1A404AF3
S214005310134402680B409342804635D81544FFF785
S214005320A1F9A0F58050854230D83D68DFF8A890F6
S2140053302A44D9F8000002EA0105854208D9291A4C
S21400534000F50060FFF7FCF9002882D1C9F800508C
S2140053503A682B49D8F80000FFF705FAD8F800306D
S2140053603A682049054613442548C8F80030FFF738
S21400537055FD002DADD06CE781246BE7842469E7EA
S214005380802467E7822465E7872463E7832461E750
S214005390042B14D11F4C1323022163702046217066
S2140053A0FFF7F0F81C4A1D4B128905329A801C4AFA
S2140053B01A6062789A710024EFE60D24EDE6062462
S2140053C0EBE600BF2C0B0020320B0020C41300209D
S2140053D0340B0020B80D0020C011002084010020EE
S2140053E0380B0020BC110020300B0020910100205B
S2140053F0310B00202C070020C8130020A80D002029
S214005400BC0D002010000020C000002000F8FFFFA8
S214005410B7E900009C0D00207C060020880D0020C7
S214005420DD5A000040F6280210B51368A3F50063A5
S214005430B3F5605F0ED2EFF3108072B6084B01240E
S21400544019781C70FFF7CEFD39B91368BDE8104017
S214005450DB6918474FF4817010BD0020FCE700BFE1
S214005460850D0020134A144C08B5937E43F0400384
S2140054709376124B00221A70114B1B784FF0005592
S2140054806BB1FFF7CFFF0F4B2B600123A3602368A0
S21400549023F4E06343F480632360FFF73FF92B6057
S2140054A00123A360236823F4E06343F4806323604E
S2140054B0FFF734F97C06002000500E40D806002086
S2140054C09101002002020FF010B5134CA37E5B067C
S2140054D021D4FFF707FC2168A38C40F2E24202FBCE
S2140054E00312226094F84F10A27A25200A4492FBF9
S2140054F0F0F100FB1122A272228901322281626839
S2140055000A2101FB03236360238B5A1E228313B9EF
S2140055100820FFF7A7FF10BD7C0600202DE9FF41FD
S214005520294C40F601002189FEF7D6FFA37E13F032
S214005530400242D143F0010303F0FD0362F382030D
S214005540224AA376136823B121899288914200D11A
S2140055509847A37A1E4F1F48234493F82A30637552
S214005560FFF7F2FBD4E900547B681B4A5B7A6408B9
S2140055702E1B12F803800120FFF7C6FB6435009649
S214005580002625446A46012441463346386802957B
S2140055908DF804608DF80C608DF80D408DF80E6067
S2140055A002F018F8224605463146386802F026FB17
S2140055B035B1FFF789FFFFF7B1FF04B0BDE8F08112
S2140055C0064B3B61F9E700BF7C060020880D0020F3
S2140055D0C41100208806002096CD00004557000024
S2140055E002282DE9F0411FD002D8012807D0FEE797
S2140055F0032800F09C80FF2800F09980F7E74D4CC8
S214005600637C980707D5FFF76DFBFFF7C7FB637C46
S2140056106FF341036374637C990701D4DA0764D49B
S214005620BDE8F041FFF7BABB4B784C68DB077ED588
S214005630227802F00F07032F59D0052F77D13E4965
S2140056408B7B03F00103B3EBD21F04F108004CD1AF
S2140056500622083107F01CFA8046002845D1FFF7DD
S21400566041FBFFF72BFB354D414606465C2228469C
S21400567007F0FDF9AB7E2F8343F02003AB76627E06
S214005680237E43EA0223AB84627F237F43EA02231E
S214005690EB8494F82330C3F3040385F84F3094F872
S2140056A02330C3F3421385F8503004F11E001B2349
S2140056B02B85FEF7A5FFD4F80E30E27CEB60A37CCA
S2140056C02E6043EA0223227D607D43EA02432B617B
S2140056D0012795F84F30AB722F75E18A3944FEF7F3
S2140056E07BFFFFF71BFF164B1F70BDE8F081124DC6
S2140056F0AB7B03F00103B3EBD21F04F10800F4D137
S214005700062205F1080107F0C3F90028EDD1094C7F
S214005710286894F83D204FF40073023204F13C01EF
S21400572002F044FA637C43F002036374DDE7FFF79C
S214005730D9FA75E7DC000020C41100207C060020A2
S214005740D806002002282DE9F7430F460BD003D8D1
S214005750012800F0B281FEE7032800F0B681FF289A
S21400576000F0B381F7E748784E68BB4D10F00104AF
S21400577061D14FF0FF3140F60300FEF7ADFE26463E
S214005780AB7EB64C13F0200F12D0696D6FF3451345
S214005790AB76002900F09F80237895F85820627039
S2140057A043F003032370A01C07F056F900236B6533
S2140057B0AB48DFF8D082FEF7D7FEAA7E237800300B
S2140057C018BF012060F34102C2F30011AA7661F30C
S2140057D08203C2F3C00262F3C30360F304132370B0
S2140057E0218840F60200FEF777FE62789B49D8F8DB
S2140057F0000002324FF40073D2B202F0D7F9AB7E4B
S2140058007C68D90709D56FF30003AB7600236B607D
S214005810FFF754FA2860FEF7C1FE4EB1237803F076
S2140058200303022B00F031816DD8012B00F02C8190
S21400583003B0BDE8F083318840F60300FEF74CFE67
S2140058403378A97E96F80080C3F3001363F38201D1
S214005850A976C8F3C003C1F300118B4206D108F045
S2140058600303022B05D019D8012B31D0002634466D
S21400587015E0A146767896B17A48848AFEF774FEDB
S214005880201A80B2B9F1000F04D0022886BF023871
S21400589080B2002086428CBF002401242646AB7EC0
S2140058A0C8F38008C3F3C002904507D082F0010217
S2140058B062F3C303DBB243F02003AB76002C3FF465
S2140058C05FAFAB7E81F0010161F30413AB7657E75F
S2140058D04FF00009CEE795F828306148A21C0DF17C
S2140058E00701FFF7F1F8C0B258B19DF80730002B5A
S2140058F00CBF012202222378607062F3010323703A
S21400590056E70122F7E7A378022B65D011D8002BC3
S2140059104DD0012B38D0544A127822B1162B7FD0A6
S214005920182B00F08C805148072202704370022129
S21400593027E00C2B18D0142B56D0082BEBD1B8F838
S214005940201054F8035FC8B205EA0002474801F485
S2140059507F41044642EA0105092104F8011B0023A1
S214005960C0F8015063600CE040484FF0FF3203700F
S214005970012343708270037102220023C2704371B8
S2140059800621FEF7FFFD53E7617A237A384A43EA99
S214005990012393801346374943F8061B54F8031F28
S2140059A0C2F80610A2889A80A2799A7140E7627BB4
S2140059B0237B2F4943EA02238B800B462E4A43F86B
S2140059C0062B54F8032FC1F8062062685A60228915
S2140059D01A81A27A9A722BE72A89254B05329A8079
S2140059E0264A1A60E278E0E7B4F80530B4F80320F7
S2140059F01E48DB08934228BF13462B85152300213B
S214005A006FF004046FF02702037007238170817122
S214005A104470C27003714471C27103720921B0E709
S214005A202279E3781148134003F00303022B18BFD2
S214005A30012317220270437083700321A1E7627965
S214005A40A1790B4B42EA01229A800D4A1A60D4F8DB
S214005A500320C3F80620EBE67C060020D4150020C1
S214005A606C0C0020540B0020840D00209C0D0020A0
S214005A70880D0020ED4F000001500000DD5A0000A8
S214005A8031500000C411002000261248818AFEF71B
S214005A906BFD081AA51C80B2647826B1022886BF62
S214005AA0023880B20020A3B283423FF6C1AE2A4637
S214005AB031460848FEF79DFFBAE6074B9B7E9A07DD
S214005AC03FF5B6AE5B073FF5B3AEFFF7FDFCFFF75D
S214005AD025FDADE6540B00207C06002008B5024BE1
S214005AE09879FFF7BFFC00BF880D0020F8B50428A2
S214005AF079D8DFE800F00B0312A0A5008026402529
S214005B0006230724002900F0828070E04FF4007618
S214005B104FF4807508230924F4E7002974D04B4C11
S214005B20636A13F0300F5FD1636ADD0705D5636AD9
S214005B3023F0300343F0100363620425022303249A
S214005B40424E3566424E33449B001F68002FFCD001
S214005B50002A48D03444A4002368002BFCD0022836
S214005B6041D100293FD0394B5A6A12F0010F1A462C
S214005B703FD04FF48062C3F8A82020225A665A6AA3
S214005B8012F0300F0CBF4FF440024FF40002D3F86F
S214005B90901032EA0101FAD1520201D5D3F8A030B2
S214005BA02A4E012200210220D6F89C70FFF79EFFA5
S214005BB0D6F89030726A274B22F0300242F010027C
S214005BC07262C7F30A07316BFA0903320F2A03EA37
S214005BD0010328BF0F223B4343EA02733363356653
S214005BE02368002BFCD0F8BD0425022303240021E3
S214005BF0A6E7536AD2F8903003F44003B3F5400F9B
S214005C00F8D1D2F8A030CBE70826022303240F49A8
S214005C1001200E6600FA03F3D1F890001842FBD17B
S214005C20002AE0D00123094A03FA04F4D2F890309F
S214005C302342FBD1D7E70125022600232C4661E745
S214005C4020261025042305245CE700BF00400E40F4
S214005C508004F21000F8FF0F00F00F00013807284C
S214005C6048D8DFE800F0040F1947232D4735244BAA
S214005C70D3F8943003F00703023B022B3CD8214AAA
S214005C80D05C70471E4BD3F8803003F00703013B0F
S214005C90032B33D81C4AF3E7194BD3F8843003F0B0
S214005CA00703013B032B29D8184AE9E7144BD3F81E
S214005CB0883003F00703013B032B1FD8144ADFE7A5
S214005CC00F4B1B6F13F0010F14BF092007207047FE
S214005CD00B4BD3F85C3103F03003202B06D0302B6F
S214005CE006D0102B0CBF07200120704704207047F9
S214005CF00820704700207047052070470120704735
S214005D0000400E401ECC000021CC000025CC000038
S214005D1021CC00000048704700F04902FEE708B5B5
S214005D20FEF7FCFC0E4B0F4A9A60D3F8882042F42C
S214005D307002C3F888200C4B5A6D42F400525A6524
S214005D401A6C22F003021A64084A136823F001034F
S214005D50136052F8143C23F0805342F8143C70470A
S214005D6000ED00E00040000000300E4074300E40B1
S214005D700B4BD3F8942002F00702022A04D001D37A
S214005D80042A0AD9074800E00748D3F80031C3F3CD
S214005D9004230133B0FBF3F070474FF40040F4E700
S214005DA000400E40C0EA210100F0490208B5FFF7A6
S214005DB0DFFF044BD3F80831C3F308230133B0FBED
S214005DC0F3F008BD00400E4000F00F00013870B53B
S214005DD007283CD8DFE800F00F4B4D3B046B3B76C2
S214005DE0514C0139092932D8DFE801F05F484F31BC
S214005DF03156313131450239032928D8DFE801F020
S214005E003402282E012003240122484D1146FFF7B4
S214005E106DFE2E6C464841F671332B64FEF7B8FAD9
S214005E200EB100232B64434B5C67FFF7BFFF3F4C6C
S214005E300646FFF79DFFFEF717FB256C41F671330C
S214005E4023643046FEF7A4FA0DB10023236470BD28
S214005E503948FEF709FB02200446D5E73648FEF728
S214005E6003FB01240320CFE700200424CCE7334CB7
S214005E70B7E7334CB5E704232360E8E70122114671
S214005E800020FFF733FE0223F6E7012211461046F4
S214005E90FFF72CFE0123EFE7FFF76AFFFEF7E4FAB1
S214005EA0284B01221A600323E6E70023E4E70729CC
S214005EB004D00929CBD11F4B012201E01D4B002243
S214005EC01A67C4E701390729C1D801A353F821F09E
S214005ED0235F00004F5E00004F5E0000155F00006D
S214005EE04F5E00004F5E0000075F0000F15E00009E
S214005EF003221049D1F85C3123F0300343EA021341
S214005F00C1F85C31A3E7012211460420FFF7EEFD3D
S214005F100122EEE7012211460220FFF7E7FD0222EA
S214005F20E7E70022E5E700BF88400E4000000E408D
S214005F3000F0490200400E400148E80180400E4053
S214005F4084400E400016C84338B5C0F30323013B17
S214005F5004460D46092B1AD8DFE803F031211A193A
S214005F60052427192A2E174B0022C4F3043442B105
S214005F701548D0F84411C90703D4D0F840110A4296
S214005F80FBD103F1047304EBC3039B001D6038BD13
S214005F90FFF70CFFFEF768FA00220C4BE5E700223D
S214005FA00B4BE2E701220B4BDFE710220A4BDCE744
S214005FB04FF48032094BD8E70022094BD5E7002280
S214005FC0014BD2E7B0400E4000400E40B8400E40B5
S214005FD0C0400E40E0400E40E8400E40F0400E400C
S214005FE050410E402DE9F84F404E414D96F800A026
S214005FF0814688461746BAF1000F39D1FEF732FBC4
S2140060003C4CA0F580502060FEF72CFBA0F500600D
S214006010606001213848FFF797FF216808200431A7
S214006020FEF7E0F823681B68834208BF23686168B0
S21400603008BFD3F804B001F104014FF008000CBF0C
S2140060404FF0010AD346FEF7CDF863681B6883421B
S21400605005D163685B685B4506D8002305E0BAF1A6
S214006060000FFAD1FF2300E001232B7001233370C9
S21400607095F900305A1C28D01E4ADFF880A052F846
S21400608023600C3635464FF6FF7BC5F30A0308330C
S214006090B3F5006F19D2AB885B4516D0A879291DD9
S2140060A00430FEF79FF82B68EC888342E4B202D1F6
S2140060B0AB884B450CD0033404F4FE7408342544F6
S2140060C086EA050313EA0A0FDFD0002038700AE0DC
S2140060D03B78A342F9D3224605F10801404606F074
S2140060E0BBFC3C700120BDE8F88F00BFCC1300203D
S2140060F010000020F006002000550A0000F8FFFF00
S2140061002DE9F04F012891B040F00F828A88002ACE
S21400611000F00D82A84B93F800A09846BAF1000F45
S21400612000F00782A54B1C781E465CB9A448029076
S21400613005783DB9A34D28681718B7F5806F05D9BF
S21400614082241C70204611B0BDE8F08FDFF89092D4
S2140061500968484406F080FCBAF1020F2F6039D077
S214006160032FEFD9984F3846FEF722FB3B78D9F835
S2140061700020012B44D17B68190E012903D1C3F3FB
S21400618007430A2B49D9914B9A423CD1BB68DA03A4
S21400619041D5022388F80030FFF744F940F628037B
S2140061A01B68A3F50062B2F5605F09D21B6BA3F50E
S2140061B00062B2F5605F03D29B6809A90020984789
S2140061C0834B099A1A60834B0A9A1A6098F8003033
S2140061D0022BB7D1804A1378082B914640F0BC803A
S2140061E07E482B6801687B4F03F0030A5A183F6805
S2140061F0A2EB0A02BA42804611D983243470A1E782
S214006200724B9A4207D0842333703378002B99D090
S21400621033701C4696E78623F6E78823F8E76C4A31
S214006220DFF8C8B11768DBF800001F440F44A7EB7F
S2140062300A0727F4FF6727F00707874209D9391AA4
S21400624000F50060FEF77CFA08B18524D6E7CBF8A7
S21400625000702968D8F80000A1EB0A01FDF7DAFF04
S2140062602A68D8F800305749A2EB0A0207461344BA
S2140062705B48C8F80030FEF7D1FD002FE5D199F84D
S2140062800030002B7FF45EAF2B687F2B7FF65AAF73
S214006290544FDFF85CB1386810BB40F628031B6823
S2140062A0A3F50063B3F5605F15D20123CDE90A00BC
S2140062B009A88DF82430FEF77BFA0A9BC3F3074241
S2140062C01B0E76D0012B01D10A2A72D940F628037C
S2140062D01B689B6B9847CBF8000006F0D1FB386034
S2140062E040F628083868D8F80030DBF80010A3F528
S2140062F00062B2F5605FA8D29B6A98470028A4D1D6
S214006300D8F80030A3F50063B3F5605F22D201230E
S2140063102A688DF81830CDE9070006A8D7F800A03F
S2140063200392FEF745FA079B190E13D00129039A2C
S21400633003D1C3F307430A2B0CD940F6280305A95B
S2140063401B680091D3F83480254909AB5046C047F6
S21400635000284FD0842451E7002B90D01F492B688B
S2140063600A681A440A601F4A106840F62802126833
S214006370A2F50061B1F5605F11D2D76A1A49184AD2
S214006380B84707462A680F491548FEF747FD40F20A
S21400639003239F4206D1029A01231370D2E640F2ED
S2140063A00227EFE740F201239F423FF468AF8024C4
S2140063B024E74FF4C0708EE7320B0020310B00202C
S2140063C0300B00202C0B0020A8010020EB17A603A2
S2140063D0C4130020C813002084010020380B0020BE
S2140063E02C0700204C0B00203C0B0020C011002086
S2140063F0500B00209DF8243089F800300393FEF7F8
S21400640059F9039B8046002850D0D0F834A0002BC2
S2140064103FF498AE0022069210AA042102F82D1D21
S214006420352006A90393FFF7DDFD069AD3074FD55F
S214006430039B082B3CD05346BAF1000F39D1B8F174
S214006440000F48D1DFF808813B4BC8F8043040F60F
S21400645028093868D9F80030DBF80010A3F5006288
S214006460B2F5605FBFF4F1AE9B6A984700287FF4F0
S214006470ECAED9F8002038682B68A2F50061B1F5BB
S214006480605F4FD2D76A2D4A4146B84707462A680A
S2140064902B492A48FEF7C2FC40F203239F423FF4F2
S2140064A07AAF40F201239F4281D14BE68246AEE7A7
S2140064B0244B039310220CA903F1280006F0E8FAF7
S2140064C020B9039B0A9A1B6A9A4201D8892495E64A
S2140064D0B8F1000F12D04FF400614046FEF730F9D5
S2140064E000287FF4B2AE2AF4FF604FF4006120F07B
S2140064F00700FEF725F900287FF4A7AE99F80030CC
S214006500082B9FD1104B114A186820F4FF6323F024
S21400651007034FF400611360FEF712F900287FF4BA
S21400652094AE0FE640F20227B1E700240AE60D24F7
S21400653008E6812406E600BF354E00002C07002042
S2140065402C0B0020C8CC0000C4130020C011002073
S2140065503C0B0020000000002DE98048794B5B686A
S2140065605C05ABB019D44FF0005300221A6022A885
S214006570FEF71EF9FEF79EF8B0B1446BFEF752FF29
S214006580249B580740F1B380FEF794F8FEF703F912
S2140065900446FEF7B7FD3CB1C0E04FF000531A6862
S2140065A0022AE0D100221A60BFF34F8FBFF36F8F2D
S2140065B0654A6649536A664F664D23F480335362D4
S2140065C09032536823F001035360086890604FF0E0
S2140065D00053D360441C604B1361AF420C604ED036
S2140065E07E1E731B43EA530343EA930343EA1313E3
S2140065F043EA132343EA13430133B3F5807F38BFDE
S2140066004FF48073C3F1000C0CEA050C03EB0C0E80
S214006610774500F294805FEAD308AEEB07074FF0A9
S214006620010E08BF4FF02008B7FBF8F70EFA07F781
S214006630013FB3FA83F3FFB2A6EB0C06C3F11E03C9
S214006640B6FBF8F6764407FA06F603FA0EF3A5EB61
S2140066500C07B7FBF8F70EFA07F7013F03F03E0307
S214006660374343F0407307F0FF0743F0011343EA54
S214006670072302309460C2F80CC013610860BFF3B1
S2140066804F8FBFF36F8F052353602F4A536A43F42F
S21400669080335362BFF34F8FBFF36F8F2F4B304C57
S2140066A001225A64E56C22AF2D0E3846FEF76AFCCE
S2140066B08E2D5BD82B49D1F8B00040F00403C1F80A
S2140066C0B030294B4FF050121A601A631A66C3F89E
S2140066D09020C3F8C020C3F8F020C1F8B000214ACB
S2140066E0D36A23F07F0343F02003D36240E014B95B
S2140066F0FEF708FD58E7FDF7B5FF8442F8D2FDF730
S214006700B1FF04F140038342F2D82046FDF7B2FF02
S2140067100028EDD063696BB9FEF7F4FCFDF7CAFFFD
S2140067200446FDF7C7FF084B986023689D466368DC
S214006730984739E79DF88830012BEDD124E75B00B8
S21400674060E700BF00500E4000ED00E06013002040
S214006750B8000020B80000203900011300000E40E9
S214006760B081E00F00400E4000A000408F2DB6D94B
S2140067709DF88930914E012B01BF914A136843F072
S21400678004031360002333608E4B02229A639B6BD4
S21400679003F00F03934240F03881D4F86C31013394
S2140067A01DD0894B1A68043B1B681A60874B1A6811
S2140067B0043B1B681A60864B1A68043B1B681A6009
S2140067C0844B1A68043B1B681A60834B1A68043BA8
S2140067D01B681A60814B1A68043B1B681A60794D67
S2140067E0EB6C23F0405323F0010343F00103EB640A
S2140067F07B4B0F221A80EB6E43F08073EB66794B6F
S214006800186800B10420FEF7D7FB2B6E23F0C043B8
S2140068102B66EB6C43F006033846EB64FEF7B2FBE0
S2140068209DF88900012812D19DF88830022B0ED8D9
S2140068306D490B785BB96D4A136843F0010313602A
S2140068402B6E6B4A1A406B4B13432B6608706A4BD1
S214006850C8221A80694BA0220F201A80FDF730FD4F
S214006860584B674A9A65D4F86811DD6CC5F3017514
S2140068702B0240F201129342C1F3072CC9B27BD01F
S214006880B3F5817F08D2012B13D07ED3B3F5807F7A
S2140068907ED00022134611E040F20122934271D0CE
S2140068A0B3F5407F77D0B3F5007FF2D1D4F87031DE
S2140068B001E0D4F87431C3F30722DBB24FF4167E3E
S2140068C0ACEB01000EFB00F0B0FBFEF00844844584
S2140068D0A2EB03010EFB01F1B1FBFEF11944C0F07F
S2140068E09480914200F29180364AD36D23F4FE43A1
S2140068F023F0020343EA0020D065236DDBB2032BAE
S2140069004CD8D4F87C31DBB21B0313F4702F7CD147
S2140069102C4AD06E20F470400343D366506EE729AD
S21400692020F4FF700B4620F0010028BFE72340EA62
S2140069304300344B5066012119604AF6E853506B09
S2140069405363936FD907FCD4136C13F003035BD027
S214006950012333601B4B19469A6FD207FCD41A6C7E
S21400696022F003021A648B6F13F00103FBD1012897
S214006970336008BF4B6348E0D4F874311A0EC3F393
S21400698007439BE7D4F8783195E7D4F86C3192E763
S214006990D4F86C31F2E7D4F87031EFE7022DD4F872
S2140069A0803106D0032D07D0012DACD1C3F30723C9
S2140069B0AAE7C3F30743A7E71B0EA5E7B40AC64337
S2140069C064310E4000300E403C80E00F4480E00F03
S2140069D04C80E00F5480E00F5C80E00F6480E00F96
S2140069E0F80600208009C643330B002044300E40D2
S2140069F0000F0EF0B4C0400BFA060020FC06002084
S214006A00774020579407C6433360C74DC74E1120C2
S214006A10FFF722F9012200210220FFF767F86B6AD0
S214006A2023F001036B62C24B4FF00008C3F80080EE
S214006A30AB6A23F0070343F00603AB62BD4BEB6281
S214006A402A6BBD4B02F07F6213432B63BB4B6B6319
S214006A5011200421FFF7B8F96D6AD6F84090B848BF
S214006A6041F67133336445F04055FDF791FCB9F1BA
S214006A70000F01D0C6F840801120FDF7A5FCB04BF2
S214006A80B04E0130B3FBF0F0FDF7EEFC01221146EC
S214006A900220FFF72BF8A44B5D62D3F8C820AA4D5E
S214006AA042F00102C3F8C8202AAAA36AB3650424E8
S214006AB0002302F88C4D09A935200993FFF792FAB6
S214006AC006238DF81B30099B8DF81A4013F4803F7F
S214006AD00BAC00F05982B36D8DF82C30B36D8DF889
S214006AE02D30B36D8DF82E30B36D8DF82F30B36D1D
S214006AF08DF83030B36D63F03F038DF831309DF87C
S214006B00323043F001038DF832306C608F4B904A80
S214006B109A604FF000084FF48071C3E90022596173
S214006B20A3F810808B4A8C4B8C4E9A60C3E90022E7
S214006B305961202241463846A3F8108005F097FF99
S214006B40FC2208238DF88B20854A8DF88930239205
S214006B508DF8993040F20172F823ADF892208DF846
S214006B609B30804A804B25924FF001093846279388
S214006B708DF8909000F06AFC7C487D4B036041469F
S214006B807C4B436000F0DEFC65A3D3E90023306055
S214006B90CDE900234FF0FF334FF0FF3200F0A8FF9F
S214006BA002224FF0FF313068734C00F0ABFF734B9E
S214006BB02293394603F500333068CDF8908023934E
S214006BC000F074FD2146306884F8008000F0C4FFB1
S214006BD028B12146306884F8009000F0BDFF306888
S214006BE0DFF8BCA101F048F82178B5F9002030683C
S214006BF000F03CFC0146306800F099FF6C68002C01
S214006C0040F0DC815046FDF751FCB37B64F3000393
S214006C10B3735B4B5B4C5C4DDFF888814FF020090B
S214006C20A6F820905A2283F80193002183F8039354
S214006C3004F10A0083F8059383F8069383F8049317
S214006C4083F8079383F81C9305F011FF42F2107344
S214006C50E3604E4B0022C4E900534D4DC8F80020B7
S214006C601B2225232A802AAA6372012302F8903D5C
S214006C700DF119013E202372FFF7B4F92AAA112359
S214006C8002F8913D15A93620FFF7ACF92AAA394635
S214006C9002F8929D3920FFF7A5F980BB3D4B9DF881
S214006CA0172018681B7922903B71002A00F08F810C
S214006CB01B2A28BF1B22531D8DF8163015A9531CFE
S214006CC00DF18D008DF88B3005F0C6FE1AA8FDF785
S214006CD0EDFB314A9DF816301288FA522AA99A1C02
S214006CE051FA82F2002102F8201C1A98BDF86C10A6
S214006CF042F81F0C093322F81B1C8DF816302AAAFE
S214006D00202302F8933D1AA93A20FFF76BF90028D2
S214006D104FD1224B1A889B788DF86A3044E000BF2A
S214006D20085580280000000000400E4000000E407D
S214006D30A004C8432000050007AD0AD047A0020003
S214006D4000F0490200500840940100206C0C00201E
S214006D50840C00206C0B0020540B0020C411002073
S214006D6038CC00002ACC00007CCC0000F4110020B7
S214006D70E14B0000E8110020140000203C009400C5
S214006D8000E100E0DC000020D6BE898E5555550097
S214006D908601002008CD000012CD00000ECC0000B9
S214006DA0CC110020B80300200323ADF868208DF82E
S214006DB01530B34BB34800224FF00209C3E9002256
S214006DC0B14B036080F80490FDF7FCF9AF48B04B78
S214006DD0036080F8049010230372FDF785FDAD482C
S214006DE0AD4B0360AD4B80F80490C36080F808900C
S214006DF0A0F81090CDE900394B4690E80600143014
S214006E00FDF7BCF99DF81710002900F0EE8015A8D4
S214006E10FDF794FDA248A34B03604FF0100980F8DD
S214006E200490FDF7CFF9A048A04AA14B03604FF6A7
S214006E30FE7B0823C260A0F810B080F804900372AE
S214006E400393FDF751FD9B489B4A02600C22027299
S214006E509A4AC260A0F810B080F80490FDF744FD8E
S214006E609748984A039B02604FF0020B964A80F8B8
S214006E700490C260038280F808B0FDF735FD9348A1
S214006E80934B0360934BC36080F804900123038206
S214006E9080F808B0FDF728FD8F48904B0360904BB4
S214006EA0C3604FF6FE73038280F8049080F808B043
S214006EB0FDF71AFD8B488C4B03608C4BC3604FF676
S214006EC0FE73038280F8049080F808B0FDF70CFD8E
S214006ED0874B6B4A1A604FF6FF729A809DF8162011
S214006EE0202A05D8931D63753946824805F0B4FDFF
S214006EF09DF81520202A06D8931D84F83D301AA93F
S214006F007D4805F0A9FDFDF7EDFE227C637C002A96
S214006F106ED143F001036374237D62F30303B27BF7
S214006F2002F0010262F386132375637D0BB9062314
S214006F306375724BBAF80410B068C4F816009980EE
S214006F4094F83C30042161F3030362F3861384F85B
S214006F503C3094F83D3013B9062384F83D30684B36
S214006F60B068BAF80420C4F83E009A80FDF716FF11
S214006F70644C654B1B78002B7BD1644A136923F065
S214006F800403136130BFF4E70DF11B0221462C20E9
S214006F90FFF728F800283FF4B9AD0DF11A0208A94A
S214006FA03C20FFF71FF89DF8323020B19DF82020D6
S214006FB062F30003A7E560F30003A4E52068B06071
S214006FC0A288A3798AF80630AAF8042021E60823C6
S214006FD08DF8163004238DF88B304D4B1A889B782D
S214006FE0ADF88D208DF88F3070E6032148480FE706
S214006FF06FF300038FE7EFF3108672B600231A468E
S2140070000DF11D014348FDF75FFD3046FDF7EAFF31
S2140070109DF81D3013B10023C8F80030D8F80020C2
S214007020EFF3108672B6C2F501739BB222440DF1DF
S2140070301D013848FDF748FD03463046FDF7D2FFF0
S214007040D8F8000018440328C8F8000011D9B4F88E
S214007050009009F1040398420BD307D860880428EF
S2140070604FF0000758D0062800F0C6810023C8F865
S21400707000302848FDF778FA0028BCD17DE700BF2D
S214007080DC0600208413002015CD00001C0500201F
S21400709018CD0000000700201BCD000012CC000019
S2140070A0A41300201ECD00007405002045510000EA
S2140070B02FCD0000CC05002040CD0000016100006F
S2140070C01404002051CD0000C0CC0000240600208F
S2140070D062CD000095CD00006C04002073CD00004A
S2140070E0F9470000BC03002084CD00001D4B0000C3
S2140070F0E4060020F800002020010020F200002016
S2140071001A010020B4010020D806002000ED00E09F
S2140071100ECD0000540B002022796F8009F1FF335A
S214007120082A9BB200F0DF801BD8042AB74E39D05D
S214007130062A4ED0022A1AD1022B40F05981B4F802
S21400714005700022B7F5007F28BF4FF400770323B1
S214007150114602203370A6F80170FDF7BFFF2F809E
S21400716084E7102A00F0F48003D80A2A70D006229A
S21400717094E0122A00F09B80522AF8D1B4F8050059
S214007180FDF74AFB00283FF471AF037B5B077FF5F2
S2140071906DAFA9F1030292B29D49B4F80500FDF760
S2140071A089FB63E7042B79D1B4F80570B8B2FDF714
S2140071B033FB58B1027A41687780022A0CBF01235C
S2140071C0022305203070737003205FE06F800A2270
S2140071D064E0DFF840B2B4F80500B4F80710CDF864
S2140071E044B04FF00203A9F107028DF8483092B27E
S2140071F00BF102030093019211AB0CCBFDF7AEFC32
S2140072004FF6FF7A5045814604D16368C3F30F23D7
S2140072106B80DCE7CDE900774FF002038DF838305D
S214007220CDF834B001300DAB0CCB514680B2FDF733
S21400723095FC50451CBF00F1FF3080B20723337029
S214007240A6F80190A6F803000022114604201DE0CF
S214007250022B40F0CD80B4F80500FDF7DDFA0028DB
S2140072603DD0037B990714D52B882AAA013B22F828
S214007270803D11A9B4F80500FDF7F6FA024648B9B4
S214007280624BBDF828200B2119701199FDF726FFD7
S214007290ECE602226368C3F30F236B805B4B207916
S2140072A06988587001261E7059801A71CCE7B4F8A8
S2140072B00500FDF7B1FA90B1037B1A0711D5A9F1C5
S2140072C0030292B25249B4F80500FDF7F3FA0246FB
S2140072D00028DFD14D4B132119700146D6E7012255
S2140072E0D8E70322D6E7A9F1050B1FFA8BFBBBF103
S2140072F0020F02D0BBF1100F7CD1464BB4F805004C
S214007300B4F8071011930023CDE900338DF848B088
S21400731011AB0CCBFDF722FC4FF6FF7398420646E6
S2140073203FF473AF2B882AAA043B22F88A3D0AA9A9
S214007330FDF79AFA024608B16E80AFE7334BBDF808
S2140073401E205E8009211970911C59700A993BE72E
S214007350A9F1050B1FFA8BFBBBF1020F02D0BBF1A4
S214007360100F47D10027B4F80500B4F80710DFF86F
S214007370A4A0CDF844A0CDE900775FFA8BFB8DF88A
S21400738048B011AB0CCBFDF7E9FB4FF6FF7948454B
S21400739006463FF43AAFCDE90077CDF83CA08DF82D
S2140073A040B001300FAB0CCB494680B2FDF7D6FBA0
S2140073B02B882AAA4845A3F10603074622F88A3DE9
S2140073C018BF00F1FF370AA9304618BFBFB2FDF755
S2140073D04BFA02460028AFD10C4BBDF81E205E804B
S2140073E011211970111D59709F800A9905204DE7CB
S2140073F0042253E7024651E7074B119311A90223D3
S214007400CDE913771293FDF741FE2FE68A0100209F
S214007410BB010020BD01002011000020FEE7000097
S21400742008B5FEF77FFC064B0649074A8B4201D398
S214007430FCF76AFE52F8040F43F8040BF6E700BFA9
S21400744010000020C000002074E1000038B504469B
S21400745000F097FB0FCC044D0FC594E80F0085E8AD
S2140074600F00002038BD00BFD416002047F6FF737B
S2140074709A42F0B560D0022960D8314BCE009819F8
S21400748013F831108578012DB8BF0125012919465A
S2140074900DD1C3785B1B23B1416831F913109142BB
S2140074A002DC5819C0B2F0BD013B1BB2F3E74068DE
S2140074B00028F8D0B0F90030934204DBB0F902306F
S2140074C09342B8BF13468288FF2A03BFB0F906402E
S2140074D0B0F90870012200221CBFC8242827E41A2D
S2140074E094FBF7F414448A1924B25678721EA2420A
S2140074F0A8BF22464FF47A7700EBC2010132CC884F
S214007500896812B213FB041121EAE171B24201F557
S214007510FA71B1FBF7F104DA00EBC204A4888C42DE
S214007520EAD200EBC20232F8040C884228BF0846B2
S214007530A84238BF2846B5E7FF20B4E70020B2E7E8
S214007540D416002070B50E46044678B1084D2B7848
S21400755063B9084B186000F07FF83146204600F00B
S2140075606BF8031C18BF01232B7070BD0020FCE7CE
S214007570F8160020F41600200846114600F080B8E1
S2140075802DE9F843124D04460F46994601216B68D3
S2140075900020904698470646C4B104F10C004B46BE
S2140075A04246394603F06AFE044618B92B680120A5
S2140075B0984704463EB100F0A3FB00B91CB1002179
S2140075C06B68084698472046BDE8F8832046E6E7FD
S2140075D0280000202DE9F041114D04460F466B6847
S2140075E001210020904698470646BCB104F10C00E5
S2140075F04246394600F08AFA044618B92B6801203C
S214007600984704463EB100F07BFB00B91CB1002150
S2140076106B68084698472046BDE8F0812046E7E7B5
S214007620280000207047431E012B03D9031F584231
S214007630584170470120704738B504460D46002172
S21400764000F073FA2946204603F0C8FC00280CBF59
S2140076502046002038BD000010B5044603F080F830
S21400766044B1054AD4F88030002B08BF1346034ABD
S214007670136010BD636FFFDE257600001C0000203F
S21400768010B50C4603F08CF81CB103F0EDF8012899
S214007690FBD1034B00215B680320BDE81040184770
S2140076A02800002000B10C3003F01CB90B8810B481
S2140076B03BB143F2C822934228BF1346642B38BF1F
S2140076C064230B804B883BB143F2C822934228BF09
S2140076D01346642B38BF64234B808B883BB143F240
S2140076E0C822934228BF1346642B38BF64238B807E
S2140076F0CB883BB143F2C822934228BF1346642B83
S21400770038BF64230A89CB8043F2C8244B89A2423F
S21400771028BF2246A34228BF23460A814B8100B1D8
S2140077200C305DF8044B03F0BFBC00002DE9F04FB1
S214007730DFF890A1604E85B0044600911746994642
S21400774003F092FEBAF8005003F098FE00287CD1B1
S214007750E36E326893425ED003F086F8012839D192
S214007760DFF864B1A26EDBF80030E06E002B71D05B
S214007770934272D01D68116802680DB18D4278D0B0
S214007780204603F065FB0023054601270193D4F845
S2140077907C808DF80F90B8F1000F76D0002211464D
S2140077A00DF10F032046C0477DB9D4E91A23336094
S2140077B0019BCBF800200BB9002F41D0009BCAF8E4
S2140077C00030204603F08EF9054687B9284605B0F6
S2140077D0BDE8F08F012002F0E3FF03F045F8012832
S2140077E0FBD1364B00215B6803209847B8E7B5FA13
S2140077F085F04009332100F01DFA4946204603F083
S21400780045FB2F4BE16E1B68A4F10C0098472846F9
S21400781005B0BDE8F08F002B9ED0009B9D429BD10B
S214007820B9F1000F0CD05FB1E56F01228DF80E2084
S214007830002D37D00022204611460DF10E03A84732
S2140078400025284605B0BDE8F08F0023336003F01E
S2140078500DFE7DE71168026892E73168002989D03D
S214007860814287D1009BEB1A18BF012301930025A4
S2140078708DE7316811B10968914201D059687FE7F8
S214007880002301931D46012781E7217994F8B13042
S214007890994228BF19464A46204603F0D2F8002DE2
S2140078A093D182E7217994F8B130994228BF1946DE
S2140078B0204603F0C6F889E70417002028000020B9
S2140078C01C000020FC160020001700202DE9F04FB9
S2140078D0804683B00E46FDF751FBD8F86C308246E2
S2140078E01BB1B8F80830B3424FD0D8F86870002FF4
S2140078F059D0BC68002C56D0F968002953D0D8F867
S2140079007C300193002B56D04FF00009CC464D46F4
S214007910A8F10C0B00E0BC68C5EBC50204EB8204C2
S2140079200135E289B24216D8228AB242584612D3AC
S214007930B4F91210B8F9E8C08C4501EAE17218DD16
S21400794098F8A810FFF792FD98F804208242814626
S2140079500FD9F968A4468D42DDD3BCF1000F07D1DC
S2140079605046FDF73FFB0124204603B0BDE8F08FEC
S21400797064460023194622464046019DA847A8F8BB
S2140079800860C8F86C4088F8B190002331461A4663
S2140079904046FFF7CBFE04465046FDF723FB204645
S2140079A003B0BDE8F08F5046FDF71CFB03242046CD
S2140079B003B0BDE8F08F994618461D4647F6FF7B94
S2140079C0A8F10C030EE098F8A810FFF74FFD98F802
S2140079D0042082428146D2D9F968019B2046A942FA
S2140079E016D9BC68C5EBC50204EB82040135E289F2
S2140079F0B242F4D8228AB242F1D3B4F912100193FB
S214007A005945184601EAE172DDD14FF0FF09B6E7A5
S214007A100028A5D00446B2E7F8B50D1C18BF01250E
S214007A200E4607461F21284600F004F9002430467B
S214007A3000F08FF91F21284687F8B440C7E91A647A
S214007A4000F0F8F8F1684FF6FF721C20E3B28B42A4
S214007A500BD315460A4A002313600A4A29463846BD
S214007A601360FFF733FF2846F8BDB56800FB0353E5
S214007A70DD89954202D2002DECD02A460134E5E796
S214007A800017002004170020008970470A7838B5D0
S214007A9005461046FFF7C7FD60B14C782046FFF755
S214007AA0C2FD38B12243530704D42846BDE8384007
S214007AB002F032BF012038BD00B10C30FFF7E6BF40
S214007AC010B504460878FFF7AEFD58B14A78104660
S214007AD0FFF7A9FD30B1042A04D02046BDE81040C7
S214007AE002F044BF012010BD00B10C30FFF7E8BF24
S214007AF030B4DDE9024500B10C30CDE9024530BCBA
S214007B0002F0DABD00B10C3002F0DDBE70B50446FE
S214007B100D461646FFF7DAFE30B9324629462046AD
S214007B20BDE8704002F0CCBE70BD03F0AFBC38B507
S214007B30044600200D4600F00AF94CB1D4F888300F
S214007B4043B9294604F10C00BDE8384002F098BF5E
S214007B50E36FFFDE022038BD38B5044648880D4680
S214007B6000F0F5F84CB1D4F8883043B9294604F152
S214007B700C00BDE8384002F027BFE36FFFDE0220AE
S214007B8038BD00F0E5B838B505460C46FDF7F6F901
S214007B90A9696B690C4023436B61FDF723FA00204B
S214007BA00CB9002138BD4FF48071FBE700B10C30F2
S214007BB003F0EBB800B10C3003F001B907B502AA28
S214007BC04FF4007322F8023D0749FFF7F3FFBDF8B4
S214007BD00630B3F5007F05D1022808BF002003B0A9
S214007BE05DF804FB0120FAE7081700200846114656
S214007BF003F022B800B10C3003F0B4B838B515461F
S214007C0058B100F10C0411B1204603F0F3F835B179
S214007C102046BDE8384003F0EFB80446F3E738BD29
S214007C20024B1960024B1860FEE700BF20000020E0
S214007C302400002008B528B9034B1960034B1868C8
S214007C40FFF7EEFF08BD00BF20000020F41600205E
S214007C50034618B15B7B0C3013B108475B78FFDE38
S214007C600220704710B5044603F044FC204603216A
S214007C70BDE8104002F080BD00B10C30FFF7F2BF47
S214007C800149FFF7E5BF00BFF1B400000149FFF767
S214007C90DFBF00BFA3B4000070B5437806460C46AD
S214007CA0B3B103F07DFC616802460546304603F03A
S214007CB02BFC206890FAA0F0000A02F083FEA17A5E
S214007CC020892A4681F0010103F044FC002070BDA3
S214007CD00220FCE71FB500B10C30CDE90112ADF86B
S214007CE00C3001A99DF818308DF80E30FFF7D4FF40
S214007CF005B05DF804FB00207047002070470000C8
S214007D00014B1878704700BF08190020431C08D0A4
S214007D10044AD2F83C311B0C1B0480B20343C2F861
S214007D203C3170470040084010B504460868FFF72D
S214007D30EDFFE36E4BB15B693BB10A68013204BFED
S214007D406FF001020A600A681A60002010BD7047D2
S214007D50704731210120FFF76DBF38B50D46044648
S214007D6000F09AFEAC4042F2107164094C43642362
S214007D70B0FBF3F0B4FBF0F038BD0000034B1A681C
S214007D8002609B8883800020704700BF360000207A
S214007D900F4B0228D3F8883104D183F40010C0F3C7
S214007DA040507047012805D113F4400F0CBF012046
S214007DB00020704748B9074A506A10F0010005D005
S214007DC083F48000C0F3805070470020704700BFE7
S214007DD000400E40B081E00F0B4B5B88B3F5E16FBF
S214007DE095BFC8235A237822502298428CBF172367
S214007DF010230B70054B1B7823B1904294BF0020D4
S214007E0001207047184670473600002034000020D6
S214007E1013B51B4B1B78032B04461ED00DF1070130
S214007E20FFF7DAFF9DF807301E2C4FEA032343F4D2
S214007E3040434FF0010212D912490A6090B9124A23
S214007E4001211160C8B1114A4DF60171116002F1AD
S214007E50007213600E4B08221A6002B010BD0D4966
S214007E600A6040B10C4A4DF60171116002F10072D1
S214007E701E2C1360E3D8094AE2E7094BEBE700BF84
S214007E803600002008410846204108461C410844A8
S214007E9094400846084108440441084420410844E8
S214007EA0944008440A4B0B4AD3F88831DB4303F46A
S214007EB0FE1343F40053B3FA83F3C3F1FF2303F531
S214007EC07F03F233C3EB4313013B1370704700BFCD
S214007ED000400E403E000020012804D008D30228AF
S214007EE003D00020704707207047044B187870476F
S214007EF0024B18780430C0B2704700BF3E00002026
S214007F0030B51F234FF0FF34B0FBF3F35D1CC3EB1B
S214007F104313AC40C01AE443C0B2E4B2013014606C
S214007F20086030BD2DE9F3411646404A404C1268C1
S214007F30404F14403A78012A054688461AD144EA4A
S214007F40006488F80000002333607B88B3F5E16F97
S214007F508CBF5A23C82324F47F549D4224F008047F
S214007F609ABF200A00F47F5043F6C870204302B040
S214007F70BDE8F081304A1278904228BF1546002BA3
S214007F8014BF042300232B440B70002D2FD12B4B42
S214007F9033606A46284601A9FFF7B2FF009A284BCD
S214007FA001981B7898F800C044EA823444F47F5461
S214007FB044F0080444EA0064FBB122493878224BB6
S214007FC0B2FA82F2C2F11F02022818BF0B46511CF9
S214007FD017D09B5CD8B2316821F07F433360BCF188
S214007FE0000F10D143F0306343F00403ACE74FF0CA
S214007FF03063013D3360EDB2CBE7FF204FF0FF3238
S214008000E9E7FF20E7E7013203D0421ED2B2FD2A9D
S21400801006D921F07F4323F0040343F07F4393E720
S21400802043F0040343EA00638EE700BFE00F00213D
S2140080303F00C0E0360000203E0000200400000B99
S2140080400D190020B883E00FB083E00F73B5044627
S214008050C820FFF7DDFE214B214E1B78032B01D0F5
S214008060FF2C03D1FF20307002B070BD012B1BD156
S214008070072C204628BF072001284FF0000301AA3E
S2140080800DF1030138BF0120FFF74CFF154B019A95
S214008090C3F85821144B18609DF803003070FFF7A2
S2140080A0B7FE9DF80300DFE783B9042C10D81D4601
S2140080B01846201A01AA0DF10301C0B2FFF732FFDD
S2140080C04FF4800345B1094A1360DFE70023EEE76B
S2140080D001231D460420ECE7054AF5E7360000209C
S2140080E03500002000400840E00F00210841084607
S2140080F00841084408B500F019FF094B094A002852
S21400810014BF18461046036823F47F125B0803F476
S214008110FE1313430360044B4FF00072DA6108BD90
S21400812000410840184108400040084008B500F0EB
S214008130FDFE4FF4001330B1044A1360044B4FF0B9
S21400814000621A6008BD034AF7E700BF0041084412
S2140081502040084418410844014B1868704700BF87
S2140081601019002070B505460E46C0B201F00F018A
S214008170FFF7F3FDC6F303110446C5F30720FFF728
S214008180ECFDC6F303210444C5F30740FFF7E5FD05
S214008190204470BD444B1B682DE9F047D0F8F860CA
S2140081A0DFF82091DFF82081404F03F4E073A3F559
S2140081B0C072002E08BF01268246504250413C4AFB
S2140081C01168B1423B4911D10C7884420ED19AF81D
S2140081D0A85099F80040A54208D19AF8055098F89A
S2140081E00040A54202D1B888BDE8F087B3F5C07F4D
S2140081F01660087053D09AF8A830022B46D12E4B42
S2140082001B78002B14BFC82496240F212046FFF7A6
S214008210A4FDB6FA86F3B0FA80F29B1A002BC4BF10
S214008220C3F10F05D840254BD8BF0F2586424FEA2D
S2140082300440D86603F1806303F1680340F6FF72DA
S21400824038BF05F1FF351A6003F100732902196083
S214008250FFF788FFB88000F01FFC05F01F054FF4FD
S214008260FA73AC405C4341F66A03B0FBF3F0144B80
S214008270B4FBF0F40A2044431C609AF8A83089F84E
S21400828000309AF8053088F80030ACE7012B08D0AB
S214008290094B1B78002B14BFF024B424B5E7002448
S2140082A0B3E73224B1E700BF18600840360000206C
S2140082B030000020091900200D1900200060084039
S2140082C0101900203D0000203C000020FF2907D0A8
S2140082D00B0103F4F87301F007011943064B99608C
S2140082E0FF2A07D0130103F4F87302F007021A43BB
S2140082F0014B5A60704700BFE00F0021F8B5144BE1
S2140083001C6804B10C34204600F000FE114E124FDB
S2140083103278C5B2AA4201D13B78A3B1092D13D851
S2140083200E4B012D595D05D10D4B1B78012B01D14C
S21400833041F0400101F00F0220460909FFF7C6FF91
S214008340002335703B70F8BD0025FA21F2E700BF28
S214008350F41600200B1900200C190020D4CD0000C4
S2140083603600002070B5314D314C064600F08CFBCF
S2140083700023C5E90033AB60327823789B1A2D4A78
S21400838018BF0123137033682360B388A380C82006
S214008390FFF73EFD284B2A68FF211970274B134034
S2140083A02278022A1BD1264A4FF4EE41116002F1D0
S2140083B000724FF48A41116043F08043012143F07C
S2140083C0200342F8041C194A13601E4B03221A604D
S2140083D0FFF794FF1C4B01221A70002070BD012A83
S2140083E01A4E1B4D1B4C1C481C494FF007020ED161
S2140083F0326003262E60226006220260184A0A6057
S214008400184A43F003034FF440411160DBE7326043
S21400841004262E6022600522026043F08043C022BC
S2140084200A6043F01403104A8121EEE7E00F0021B2
S214008430360000200C190020350000202800C0A0BF
S21400844024410844584108440A19002000410844C1
S214008450004108460C4108440C41084608410844BF
S214008460C100400004410844084108462DE9F04B8D
S2140084702B4F2C4B3B6000F00FFB4FF4FA634FF48E
S2140084807A76DFF8B880B0FBF6F56B434FEA032B3D
S2140084904FEA136C1BEB08004FF000094FF0000387
S2140084A0214A4CEB090103F031FDA0F58073044628
S2140084B0BB6218B92B21FFF7BDFB012406FB04F2B3
S2140084C000275608B8194FEA05283B4648F1000130
S2140084D003F01CFD154B1960154B27060646186061
S2140084E0240A25B928462B21FFF7A4FB01254FF4C3
S2140084F07A73A7FB037803FB04886C0838194FF0DF
S21400850000032A4648F1000103F000FD094B1960FC
S214008510094B1860024B013E1E63BDE8F08B00BF9E
S214008520005008400211010040420F0020190020B0
S2140085301C190020181900201419002020A107007B
S214008540044B4FF08052C3F880211A60024B012280
S2140085505A60704700E100E000500840054B0201F9
S214008560134401221A604FF4807303FA00F0024BA2
S2140085705866704774500844005008402DE9F04192
S214008580144607460D461E46FCF7F8FC022C64D03F
S2140085903D493E4AD1F800E092693D4B84460021B1
S2140085A04FF00040E2FB0E011B68D5F800E0012CFE
S2140085B008BF0EF1010E03FB021308BF9E44A3EB97
S2140085C00E0308BFC5F800E0B3F1804F4AD3314927
S2140085D0314BD1F800802D4D1B682D6B4FF00040BD
S2140085E00021EEFB080103FB0E13AB4288BFE843F5
S2140085F0264D07F1070105EB071E05EB011188BFA5
S2140086001B181120CEF880304860A969E86DA3EBEE
S214008610020E8A1A96451FD84FF48073BB40184244
S2140086201AD12CB3F1072B6608D51C4B1C4941F612
S2140086301F7240F201101A6008601A60B20706D571
S214008640164B1749174A18481A6008601A607307CD
S21400865042BF164B01229A606046FCF7C3FC01201D
S214008660BDE8F0816046FCF7BDFC0020BDE8F08167
S2140086700F4A3F013A440121604611606B66FCF7E1
S214008680B1FC2046ECE700BF14190020005008405B
S214008690181900201C190020201900206C500844CE
S2140086A06C50084600001F1F0000010100400840F3
S2140086B074500844024B0001185800F0010070473F
S2140086C07450084001F460010001024B41F00301C0
S2140086D0195070477450084008B5222000F008F979
S2140086E0024B4FF480225A6008BD00BF005008407D
S2140086F0064B10B51968064B1C684FF00042002365
S214008700E0FB042301FB003010BD00BF1819002059
S21400871014190020014B9869FFF7EABF0050084083
S214008720FFF7E6BF38B50446FFF7F4FF0546FFF748
S214008730F1FF401BA042FAD338BD000038B504460E
S214008740FCF74CFC14F4C00F054649D0274A916844
S2140087508909C1F30903890525494968906948BF15
S2140087606FEA8353C2B248BF6FEA9353000648BF0E
S21400877062F0FF021F4812F1460FC06D30DB13F5A2
S214008780007F2DD0B3EB820F2ADC01F07063B3F1CB
S214008790806F02D011F0506F22D1C00220D4FFF7B4
S2140087A09BFF144BDA6DD1021AD41A6F12B1104A1D
S2140087B001219160104ADA664FF4E0025A66A2027E
S2140087C007D55A6D12F0706F1EBF5A6D02F17F42C8
S2140087D05A6524F4C0042C2044F4801400F088F871
S2140087E02846FCF731FC204638BD00BF0070084024
S2140087F000400840005008400000010138B5344BE6
S214008800344C082205461A6001213348FDF79CFBCC
S214008810324B1D702378013B012B0CD8237CE07B68
S21400882001229A400C21302313FB001303F18843E6
S21400883003F520431A602A4B00225A67002D40D0C9
S2140088406368002B33D000F027F9626800EB520310
S214008850B3FBF2F3013B1B0243F0F8032278022A33
S21400886027D0032A29D0012A2ED143F0020307225B
S2140088701C494FF6FF70086001F100710B60184B41
S2140088805A6753070CD5237CE07B01229A400C21C3
S214008890302313FB001303F18C4303F520431A60C7
S2140088A04FF0804395B1104A1360002038BDF8237E
S2140088B0D4E743F001030522DAE743F0050301227B
S2140088C0D6E72A46F823D3E70022D1E7074AEBE7A4
S2140088D0C8400E462819002000250A00241900204A
S2140088E0000008407C000844944008469440084431
S2140088F0044BD3F89430002BBCBF034BC3F8800066
S214008900704700BF00400840000008404FF000637A
S21400891010B1024A13607047014AFBE794400846CC
S214008920944008440020704708B5064B06491A686C
S2140089304FF00450920004F08FF8BDE8084000F0B5
S2140089409BBB00BF7CDD000000CE0000C0F30062D1
S214008950034B33F8123080B240EA0340704700BF42
S214008960DECD000007B501A8FCF70CFB1A4B1B4A2E
S214008970C3F8442148F2E672C3F838214FF408627F
S214008980C3F83421164AC3F8A0209DF80530012B01
S214008990144B05D19DF80420012A9CBF28221A6595
S2140089A04AF63F429A60104B4FF0C0729A62A3F5A7
S2140089B040530022C3F8FC200C4AC3F89C2003F165
S2140089C08063A3F6DC737F221A6003F10073232210
S2140089D01A6003B05DF804FB00400840C0E653513F
S2140089E07A27000F0030084000700840806D63034F
S2140089F008B50D4B40F2FD12C3F8C820FFF7B2FFD2
S214008A000A4B03221A600A4B4FF4C012C3F8942094
S214008A1003F1C063943301221A6000F027FB054B74
S214008A204FF460721A6008BD00400E409860084619
S214008A30004008400C4008460F4B002210B5C3F813
S214008A408820C3F88C20C3F890200C4A01211160BE
S214008A505A6812F0706FFBD14FF00452DA670124A7
S214008A6002F6B872C3F880401A66054B1B68984732
S214008A70044B1C6010BD00BF004008400C40084678
S214008A80400000200C400844024B40F2FD12C3F8A0
S214008A90C820704700400E4008B5FDF769F9044B42
S214008AA0D3F81031C3F308230133B0FBF3F008BD4D
S214008AB000400E40F8B5044618B1012521684B1C4D
S214008AC000D1F8BD0846C1F30746FFF73FFF012E69
S214008AD003460CD9B600A1192246031B9F1852F86C
S214008AE0040F38608A42F9D104363444E6E7090FA9
S214008AF0606808340729E1D8DFE801F00A040811A5
S214008B000C0F1417C04303F1806301E01A6850404D
S214008B101860D3E7FFF706FED0E705FA00F003F18A
S214008B20C063F5E705FA00F0EDE71A6830EA0202DE
S214008B30FBD1C3E708B5FFF7AFFF064A126B034643
S214008B4090B228B1C2F30742DB085343B3FBF0F000
S214008B5008BD00BF00600840064B5A68C2F30362B7
S214008B60904206D1044A536823F0F00343EA011109
S214008B705160704700400840800F002110B5044641
S214008B80FFF7D8FFC4F30113012B02D0022B02D04B
S214008B9010BD4008FCE7C4F3C4240134B0FBF4F075
S214008BA0F6E700F03003202B10B512D1C0F30244D4
S214008BB01CB1C0F3C423B3FBF4F410F4C01F18BFF9
S214008BC064006408032C28BF0424FFF7D7FF604323
S214008BD010BDC0F38213012B01D0042B01D1022457
S214008BE0F3E70124F1E700002DE9F84F0646FFF70A
S214008BF091FD2A4F81464FF00008FCF7BFF9284B3D
S214008C005C68C4F30364E3B29D1E012C8246EDB299
S214008C1005D0052C3DD0A3F10B0254425441012D42
S214008C202CD8204B9B689B09C3F309009B0544BFC7
S214008C306FEA80506FEA9050711C0FFA80FB03D0E9
S214008C40FFF768FDA0EB09085046FCF7CBF91BF5CB
S214008C50007F0AD1012D19D9C4B91048BDE8F88F94
S214008C605128A8BF4FF4FE70F8E7ABF1C80000B279
S214008C7010F5007FF4DC6FF4FF70EFE7721C0BD189
S214008C805046FCF7AFF9E7E7FCF7ACF94645B4D831
S214008C90E3E7731CF8D00124BB46D1E700FEFFFFD4
S214008CA00040084000700840024B012218619A609C
S214008CB0704700BF00200840074B1968074B5B68E9
S214008CC001F00F02C3F3036300B103709A4208BFBA
S214008CD0C1F3031210467047800F00210040084081
S214008CE010B5FCF74BF9084B1B6804463BB1984798
S214008CF028B1002200204FF4007100F0B3FA20469D
S214008D00BDE81040FCF76EB93C1900202D4B70B53D
S214008D101C682D4B2D4E1D6B2D4B1B68ED0254BF52
S214008D20E31A1B192B4CB3FA83F5B3F1804F98BFA7
S214008D302646D5F10205284C54BFEB400025A34239
S214008D4088BF5B0803EB5604B4FBF6F4234E88BFDB
S214008D500135B34204F1FF3494BF0026012644EAED
S214008D60862444EA05340C6050B3B3FBF0F1642467
S214008D7000FB11336343834238BF01F1FF314B08D8
S214008D80013B0139072B4FEA5101154C03D807293F
S214008D9001D89BB991B90020207012482478062586
S214008DA005601148007824B118B110480224046008
S214008DB00020090241EA0311116070BD0120EBE7B3
S214008DC00220FAE74419002000300840C0CF6A00AD
S214008DD040190020E06735003FBE40253F1B5F136B
S214008DE049190020944008444A1900209440084637
S214008DF02DE9F84F0FF29809D9E90089A2FB03453F
S214008E0018EB040A49EB050BD046D9460FF2880B3F
S214008E10DBE900ABCB4508BFC2450E460A9F05D22C
S214008E200E210020FEF706FF02201BE00029FBD0E3
S214008E30C0F3130001EB5301B1FBF3F3A3FB0001F6
S214008E40C30C43EA41330E490B600E4B1A600E4BBF
S214008E509E4209D10D49A4FB012301FB05339B0962
S214008E603B600020BDE8F88FE90432460023E004AA
S214008E7041EA543103F04AF83860F2E7AFF3008075
S214008E80401900204419002000F049020A3BB2DFD6
S214008E9000C9E876FFFFFFFF0046C323000000007E
S214008EA038B5154D2B780C4623B9144B1B6D03F0C3
S214008EB03F032B70124BD3F894305B061AD5114B38
S214008EC0B0FBF3F040F24D534343A3F546430C3B4F
S214008ED0584300F5C91000F5556018B92B21FEF768
S214008EE0A9FE01202A78084B5343B3FBF0F020601C
S214008EF0002038BD0220FCE74B1900200030084057
S214008F000040084000366E0180969800064B1B68AD
S214008F10C3F3C20203F0070002B15043C3F3821347
S214008F2003B15843704700BF34300840034BD3F8B2
S214008F30380180F01000C0F3001070470040084071
S214008F4038B5154B154C164D4FF40022B0F1804F36
S214008F508CBF20461846134B2A601B68D3B1124BB1
S214008F60124C1B6F00F5F42000F59070B0FBF4F483
S214008F70033CE4B203F00703A34202D02046FCF70A
S214008F801BF80B4B1B782BB10A4B4FF470222404B2
S214008F901A602C6038BD00BFE0673500C0CF6A009D
S214008FA0944008468009C64300300E4040420F00F9
S214008FB048190020944008447FB50446FCF7AAFEF2
S214008FC01D4B1E4A06463146186B0092A37922684E
S214008FD0FFF70EFF054600282BD1A3791849012B71
S214008FE014BF184A184A10231360A3792068584300
S214008FF0FFF756FF03AA02A93046FFF787FE134B7A
S21400900043F6FF521A6003F10073029A1A6003F1E6
S2140090107E43743B4FF4EE621A6003F10073039ACA
S2140090201A602068FFF78CFF034BA2889A63002221
S214009030DA63284604B070BD003008402C30084083
S214009040503008403841084638410844A440084497
S21400905008B5044B01221A70034B1868FFF770FF1F
S214009060002008BD4819002044190020014B40226A
S2140090701A607047944008467FB51D4B1D4D93E817
S214009080070001AC84E80700802200211A4803F09C
S214009090EEFC1A4B1A684FF0045392001A44043A36
S2140090A04FF6CE2693420BD302F096FD144B1B7858
S2140090B023B194E807000E4B83E8070004B070BDA8
S2140090C09988B14211D1B3F9021000290DDA11F1D5
S2140090D0780F0ADB188820F4E060B0F5404F04D122
S2140090E02944080C9880598004330233DAE700BF1D
S2140090F0E00F0021701A0020800F00217CDD0000A8
S2140091000A1900202DE90048FBF738FF144B1978A0
S214009110E9B9144BD3E900234FF0000C02F4843B6A
S2140091205BEA0C0313D1104B10221A600D4BD3E9E7
S21400913000234FF0000C02F4807B5BEA0C030BD19B
S214009140094B20221A60BDE80048FBF74BBF074BCF
S21400915010221A600029E9D0044B20221A60F2E798
S214009160591900205019002094400844944008469D
S214009170044B00221A70044B197811B11A70FFF7CD
S214009180C1BF70475A1900205919002010B5FBF7C7
S214009190F5FE0E2104460320FFF7DEFC044B40F2EA
S2140091A0012220465A62BDE81040FBF71BBF00BFF5
S2140091B00000084008B503210920FFF7CDFC024B4C
S2140091C020229A6008BD00BF0040084008B5FBF7A3
S2140091D0D5FE234B4FF00062C3F88020BFF34F8FBD
S2140091E0BFF36F8F8022C3F88020BFF34F8FBFF38B
S2140091F06F8F0222C3F88020BFF34F8FBFF36F8FAD
S2140092000822C3F88020BFF34F8FBFF36F8F102262
S214009210C3F88020BFF34F8FBFF36F8F4FF080529D
S214009220C3F88020BFF34F8FBFF36F8F4022C3F881
S2140092308020BFF34F8FBFF36F8F2022C3F88020AC
S214009240BFF34F8FBFF36F8F4FF08042C3F880207D
S214009250BFF34F8FBFF36F8FBDE80840FBF7C2BE6A
S21400926000E100E0F8B5084C084D01232370084BD8
S214009270D5E900671B6830401A40394002F026F8EE
S21400928000232370F8BD00BF581900205019002095
S2140092904C1900202DE9F84FDDF828B003EA010943
S2140092A00B9B06460F4602EA000803EA0B0ABBF1D0
S2140092B0000F3FD1002908BF01281ED0C0F09981B9
S2140092C0002908BF042865D1FBF758FE2949D1E9D3
S2140092D0002322F0040444EA080243EA0903C1E931
S2140092E0002358EA090314BF234A244A4FF4806334
S2140092F01360BDE8F84FFBF775BEFBF73FFE1D4950
S214009300D1E9002322F0010443EA090344EA0802F3
S214009310C1E900231A4A58EA09034FF001031DBFAA
S214009320936302F1C0623C32164912BF13600B60B1
S2140093309363DEE756EA07032CD1BBF1010F29D170
S214009340FBF71CFE104A136823F0010343EA0A03E6
S21400935013604FF480630D4ABAF1000F05D05366D0
S21400936002F1C06268321360C3E709490B605366B6
S214009370BFE700BF50190020EC100846EC10084468
S214009380007008403C7008444C190020005008400B
S21400939068500844FFF71AFF974BD3E9004524EAC4
S2140093A0060125EA070241EA080442EA09052146C1
S2140093B02A46C3E90012914B1F6827EA0B0747EAC3
S2140093C00A071F60FFF79EFE04F0AA42002313431D
S2140093D08B4A8C49126848F2020308BF4FF40043D8
S2140093E0B80748BF43F4005322EA03060E6001F1B3
S2140093F07C4183EA0200043923EA0203824A0860B9
S2140094001360002304F48022134304F400204FF07A
S214009410000114BF4FF48053002350EA010204F009
S21400942010004FF0000118BF43F4807350EA0102A9
S21400943004F020004FF0000118BF43F4005350EA38
S214009440010204F040004FF0000118BF43F400731F
S21400945050EA010204F080004FF0000118BF43F408
S214009460806350EA0102694A6949126818BF43F4EA
S214009470006322EA03060E6001F17C4183EA0200E3
S214009480043923EA0203634A08601360002205F4E5
S2140094908073134304F480524FF0000314BF4FF45C
S2140094A080260026134304F400324FF0000318BF52
S2140094B046F48036134304F002024FF0000318BF50
S2140094C046F48016134304F400124FF0000318BF4E
S2140094D046F400161343A046A94608D04E4B18681B
S2140094E000B10C3002F05EF808B946F4002608F425
S2140094F08012002313434FF0000209F0080318BF40
S21400950046F400361343454B18BF46F480061A68E7
S214009510790748BF46F0040686EA020323F00103F3
S2140095203F491A400A603F4A1E4013603E4B3F4A7E
S2140095301E6017F0010F3E4B18BF13463D4A01F55B
S21400954082511268083122EA03060E6001F17C415E
S21400955083EA0200043923EA0203374A08601360EC
S214009560364B37491B6808F0010423EA04060E60F0
S21400957001F17C4183EA040024EA03020439314BFA
S21400958008601A6008F48002002313432E4A2F4B0B
S2140095902F4808F004044FF0000518BF134654EA9D
S2140095A0050218BF43F480633A072A4A116848BF89
S2140095B043F0004383EA010222F4A0221140016036
S2140095C0254913400A60254A1360FBF7D7FC244B55
S2140095D04FF000621A6080221A6008221A60102279
S2140095E01A604FF080521A6040221A6020221A60D9
S2140095F07FE6BDE8F88F00BF501900204C19002008
S2140096006C0008406C0008446C0008468C600840FB
S2140096108C6008448C600846F41600202040084001
S214009620204008441C40084020400846001C7000AB
S2140096300018700068500840685008463C700840A3
S2140096403C7008443C7008460D0A0A09090A0A09D3
S214009650EC100844EC100840E8100840EC100846EF
S21400966000E100E0024B5868C0F38000704700BF7E
S21400967050190020024B186800F00100704700BF28
S2140096805019002010B50446FFF7B2F9FFF79EFD0B
S21400969004F1280002F0C2F8FFF7CEF9FEF7E6FE66
S2140096A0FEF74EFF02F0CAFA072104F1800002F02E
S2140096B0F3FA4FF440010020FFF704F84FF40011CE
S2140096C00120FEF7FFFF02F0FBFB10B91421FEF7A6
S2140096D0B1FAFFF7BDFC0120BDE81040FFF78EB8D9
S2140096E0044B80221A60044A136823F02003136098
S2140096F0704700BF88400846F8190020674BDB68B3
S214009700DA0740F185802DE9F04B0C4682B005461D
S214009710FBF734FC23790022022B064600923FD149
S214009720237B022B35D00320FEF7C4FF20B95C4B09
S2140097305B685B0440F19F80A37B277B5949A26846
S2140097400192003318BF0123012F0B7062D0564CD4
S2140097505649227800230B70002A66D14F4D04200C
S214009760FEF7FCFEEB6E23F0F85323F4F81343F0F9
S214009770506343F48033EB663A46022301A9042083
S214009780FEF7FCFE002871D0494B012130222170E3
S2140097901A603046FBF726FC002002B0BDE8F08BCE
S2140097A00320FEF787FF002865D12179B5F89020C1
S2140097B02368012956D09B1A0093384B3D4ADA6637
S2140097C000221A67677B3C4A3C4813683C49002FD6
S2140097D00CBF0127002707704FF001000CBF43F0B5
S2140097E0200323F02003087003201360FEF7B6FE64
S2140097F02A4B344ADA662279012369460320FEF7AB
S214009800BDFE00288CD13046FBF7ECFB0120C4E7F8
S214009810032070472379022B99D0B5F89030009931
S2140098200B441A440192002791E72370FBF7A6FB2E
S21400983023783BBB244BD3E900BC4FF000090BF464
S214009840843858EA090321D1204910250D600BF40D
S2140098508072002313431DD0154B20221A60FBF79D
S214009860C1FB7BE79342A6D20090A6E70320FEF753
S21400987075FE104BEB663046FBF7B4FB032002B0D8
S214009880BDE8F08B0A4B10221A60E5E70849102560
S2140098900D60DCE70D4B20221A60E0E70050084020
S2140098A0004008405C190020591900205A19002071
S2140098B09440084600000101F81900205D190020B8
S2140098C05B190020010C0100501900209440084448
